:020000040800F2
:1000000000A00020690D0008CD0C0008D90C0008E4
:10001000E10C0008E90C0008F10C000800000000E9
:10002000000000000000000000000000F90C0008C3
:10003000050D000800000000110D00081D0D00084E
:10004000BD0D0008BD0D0008BD0D0008BD0D000868
:10005000BD0D0008BD0D0008BD0D0008BD0D000858
:10006000BD0D0008BD0D0008BD0D0008BD0D000848
:10007000BD0D0008BD0D0008BD0D0008BD0D000838
:10008000BD0D0008BD0D0008BD0D0008BD0D000828
:10009000450D0008BD0D0008BD0D0008BD0D000890
:1000A000BD0D0008BD0D0008BD0D0008BD0D000808
:1000B000BD0D0008BD0D0008BD0D0008BD0D0008F8
:1000C000BD0D0008BD0D0008BD0D0008BD0D0008E8
:1000D000BD0D0008BD0D0008BD0D0008BD0D0008D8
:1000E000BD0D0008BD0D0008510D0008BD0D000834
:1000F000BD0D0008BD0D0008BD0D0008BD0D0008B8
:10010000000000000000000000000000BD0D00081D
:10011000BD0D0008BD0D0008BD0D0008BD0D000897
:10012000BD0D0008BD0D0008BD0D0008BD0D000887
:10013000BD0D0008BD0D000800000000000000001B
:10014000BD0D0008BD0D0008BD0D00080000000039
:10015000000000000000000000000000000000009F
:100160000000000000000000BD0D0008BD0D0008EB
:10017000BD0D0008000000000000000000000000AD
:0801800000000000BD0D0008A5
:1001880010B5054C237833B9044810B10448AFF3CF
:1001980000800121217010BD4801002000000000EE
:1001A8009052000808B5064B1BB106480649AFF344
:1001B80000800648016811B1054A02B1904708BDA0
:1001C80000000000905200084C0100204801002067
:1001D8000000000080B582B000AF4FF0010001F0D0
:1001E80021FA4FF00103FB8045F64043C4F20003B7
:1001F800FA881A6040F21423C2F200034FF000029A
:100208001A8045F64043C4F2000340F21422C2F2B9
:10021800000212881A6045F64443C4F200034FF006
:1002280000021A6040F21423C2F200034FF4E052B5
:100238001A8045F64043C4F2000340F21422C2F289
:10024800000212881A604FF00003184607F10807E9
:10025800BD4680BD80B582B000AF45F64043C4F2CC
:1002680000031B68FB80FB8843F00803FB8045F60E
:100278004043C4F20003FA881A6045F64043C4F2CA
:1002880000031B68FB80FB8843F00403FB8045F6F2
:100298004043C4F20003FA881A6001F035F907F107
:1002A8000807BD4680BD00BF80B582B000AF45F6E7
:1002B8004043C4F200031B68FB80FB8823F004035F
:1002C800FB8045F64043C4F20003FA881A6001F047
:1002D80029F945F64043C4F200034FF43F421A603F
:1002E80007F10807BD4680BD80B584B000AF03465E
:1002F800FB71FB79072B05D040F28813C2F200038B
:10030800FA791A7040F28813C2F200031B78DBB244
:10031800052B00F29D8001A252F823F03D0300084E
:10032800510300086503000883030008BF030008A1
:10033800FD030008FFF7B8FF40F28813C2F200037C
:100348004FF006021A708FE0FFF7AEFF40F28813F5
:10035800C2F200034FF004021A7085E040F28813DD
:10036800C2F200034FF002025A7040F28813C2F240
:1003780000034FF003021A7076E040F28813C2F2CD
:1003880000035B78DBB203F1FF33DAB240F2881383
:10039800C2F200035A7040F28813C2F200035B787D
:1003A800DBB2002B5DD140F28813C2F200034FF09C
:1003B80004021A7055E045F64043C4F200031B6876
:1003C800FB81FB8943F01003FB8145F64043C4F2EF
:1003D8000003FA891A6040F28813C2F200034FF052
:1003E80005021A7040F28813C2F200034FF00A02A5
:1003F8005A7039E040F28813C2F200035B78DBB22E
:1004080003F1FF33DAB240F28813C2F200035A70E4
:1004180040F28813C2F200035B78DBB2002B22D1D2
:1004280045F64043C4F200031B68FB81FB8923F0B7
:100438001003FB8145F64043C4F20003FA891A60B1
:1004480040F28813C2F200034FF006021A700AE065
:1004580040F28813C2F200034FF006021A7000BF80
:1004680002E000BF00E000BF07F11007BD4680BDF5
:1004780080B500AF01F0F4F840F21023C2F2000397
:100488001B684FF000029A72FFF7A4FE01F014FEF9
:1004980040F26413C2F200034FF000021A6080BDFC
:1004A80080B500AF40F21023C2F200031B684FF082
:1004B80000029A7240F21023C2F200031B684FF048
:1004C8000002DA7240F21023C2F200031A6845F201
:1004D8008C13C0F60003DB7953724FF0000001F073
:1004E80033FE4FF000004FF4007101F041FE4FF071
:1004F80000004FF0100101F061FE4FF000004FF0D6
:10050800180101F0D7FF4FF000004FF0580101F03B
:10051800ADFF4FF0000001F01DFF40F20803C2F2EA
:10052800000393F82C304FF00000194602F046F80B
:100538004FF0000001F0E2FE4FF001004FF4C061FF
:1005480001F016FE4FF001004FF4807101F08EFFAC
:100558004FF001004FF0040102F010F84FF00100D5
:100568004FF0000101F064FE4FF001004FF0200150
:1005780001F024FE4FF0000003F0FEFC40F264138B
:10058800C2F200034FF001021A6080BD80B483B04C
:1005980000AF40F2F013C2F200037B607B689B7AE5
:1005A800002B06D040F26413C2F200034FF005029C
:1005B8001A6007F10C07BD4680BC704780B400AFD5
:1005C80040F26413C2F200034FF004021A60BD4601
:1005D80080BC704780B400AFBD4680BC704700BF88
:1005E80080B400AFBD4680BC704700BF80B584B002
:1005F80000AF0346FB714FF00003FB60FB79062B4D
:100608002DD140F21023C2F200031B681B7803F0BF
:100618007F03012B23D140F21023C2F200031B6891
:100628005B79002B1BD140F21023C2F200031B6838
:100638009B78222B05D140F2A973C0F60003FB601A
:1006480020E040F21023C2F200031B689B78212BA4
:1006580018D140F2D173C0F60003FB6012E040F2FB
:100668001023C2F200031B681B7803F07F03212BC1
:1006780009D1FB79032B06D140F66103C0F60003CC
:10068800FB6000E000BFFB68002B02D14FF00203C3
:1006980014E040F21023C2F200031B68FA689A6162
:1006A80040F21023C2F200031B684FF000025A8286
:1006B800FB684FF0000098474FF00003184607F119
:1006C8001007BD4680BD00BF80B582B000AF0346AD
:1006D800FB7140F21023C2F200031B681B7803F081
:1006E8007F03212B06D1FB790B2B03D100F09CF85B
:1006F800034601E04FF00203184607F10807BD461C
:1007080080BD00BF80B582B000AF0346FB80FB8888
:10071800184640F25C01C2F2000102F011FE0346E5
:10072800184607F10807BD4680BD00BF80B582B0F6
:1007380000AF0346FB80FB88184640F26401C2F212
:10074800000102F0FDFD0346184607F10807BD4603
:1007580080BD00BF80B584B000AF0346FB8040F287
:100768001023C2F200031B68DB78FB73FB7B042BAE
:1007780002D94FF000030DE0FB7B4FEAC30240F2C1
:100788007C03C2F20003D318FA881046194602F017
:10079800D7FD0346184607F11007BD4680BD00BFC8
:1007A80080B582B000AF0346FB80FB88184640F254
:1007B8006C01C2F2000102F0C3FD0346184607F1BE
:1007C8000807BD4680BD00BF80B582B000AF0346B4
:1007D800FB80FB88184640F27401C2F2000102F067
:1007E800AFFD0346184607F10807BD4680BD00BFA8
:1007F80080B483B000AF02460B46FA71BB71BB7977
:10080800002B02D04FF0020307E0FB79002B02D047
:100818004FF0020301E04FF00003184607F10C0700
:10082800BD4680BC704700BF80B483B000AF40F2C3
:100838001023C2F200031B68DB78FB71FA7940F2DF
:100848008C13C2F200031A604FF00003184607F138
:100858000C07BD4680BC704780B483B000AF034628
:10086800FB80FB88002B0AD140F21023C2F2000360
:100878001B684FF001021A824FF0000303E040F2B8
:100888008C13C2F20003184607F10C07BD4680BC62
:10089800704700BF80B500AF45F64443C4F200037B
:1008A8001B689AB240F29013C2F200031A8040F219
:1008B8009013C2F200031B889BB203F4004240F27B
:1008C8001423C2F200031B881340002B01D001F04F
:1008D80055FF40F29013C2F200031B889BB203F449
:1008E800806240F21423C2F200031B881340002BDD
:1008F8000CD045F64443C4F200034FF6FF321A60A9
:1009080040F20803C2F200035B68984740F2901374
:10091800C2F200031B889BB203F4005240F2142376
:10092800C2F200031B881340002B06D045F644434F
:10093800C4F200034DF6FF721A6040F29013C2F23F
:1009480000031B889BB203F4805240F21423C2F2C6
:1009580000031B881340002B0AD045F64443C4F219
:1009680000034EF6FF721A604FF00000FFF7BCFC60
:1009780040F29013C2F200031B889BB203F400629A
:1009880040F21423C2F200031B881340002B15D039
:1009980040F20003C2F200031B78DBB2002B02D046
:1009A800FFF758FC03E04FF00200FFF79DFC45F607
:1009B8004443C4F200034FF2FF721A6040F29013EE
:1009C800C2F200031B889BB203F4007240F21423A6
:1009D800C2F200031B881340002B14D045F6444391
:1009E800C4F200034FF6FF521A6040F26813C2F2D5
:1009F80000031B78DBB203F10103DAB240F268139B
:100A0800C2F200031A7040F29013C2F200031B886E
:100A18009BB203F4807240F21423C2F200031B88D5
:100A28001340002B0AD045F64443C4F200034FF6A6
:100A3800FF621A604FF00700FFF756FC80BD00BF49
:100A480080B400AF40F2F003C2F200034FF001029D
:100A58001A70BD4680BC704780B500AF4FF46D4337
:100A6800CEF200034FF46D42CEF20002D2F8882095
:100A780042F47002C3F888204FF48053C4F2020392
:100A88004FF48052C4F20202126842F001021A6066
:100A98004FF48052C4F202024FF48053C4F20203AE
:100AA80059684CF20C03CFF67F030B4053604FF4A8
:100AB8008053C4F202034FF48052C4F20202126857
:100AC80022F0847222F480321A604FF48053C4F208
:100AD80002034FF48052C4F20202126822F4802208
:100AE8001A604FF48053C4F202034FF48052C4F2E8
:100AF8000202526822F4FE025A604FF48053C4F294
:100B080002034FF48052C4F20202D26A22F00F02AA
:100B1800DA624FF48052C4F202024FF48053C4F2F6
:100B28000203196B4FF6CC43CFF600730B401363E7
:100B38004FF48053C4F202034FF000029A6000F0B1
:100B480009F84FF46D43CEF200034FF000629A604B
:100B580080BD00BF80B483B000AF4FF000037B605E
:100B68004FF000033B604FF48053C4F202034FF48C
:100B78008052C4F20202126842F4A0221A604FF4B2
:100B88008053C4F202031B6803F400333B607B68A4
:100B980003F101037B603B68002B03D17B68B3F54D
:100BA800A06FECD14FF48053C4F202031B6803F426
:100BB8000033002B03D04FF001033B6002E04FF0FD
:100BC80000033B603B68012B76D14FF40053C4F21D
:100BD80002034FF012021A604FF48053C4F202036A
:100BE8004FF48052C4F2020252685A604FF48053A4
:100BF800C4F202034FF48052C4F2020252685A60EF
:100C08004FF48053C4F202034FF48052C4F202023C
:100C1800526842F480625A604FF48053C4F202036F
:100C28004FF48052C4F20202526822F47C125A60D5
:100C38004FF48053C4F202034FF48052C4F202020C
:100C4800526842F4E8125A604FF48053C4F2020327
:100C58004FF48052C4F20202126842F080721A60A5
:100C680000BF4FF48053C4F202031B6803F0007303
:100C7800002BF6D04FF48053C4F202034FF4805295
:100C8800C4F20202526822F003025A604FF4805301
:100C9800C4F202034FF48052C4F20202526842F0D6
:100CA80002025A6000BF4FF48053C4F202035B682B
:100CB80003F00C03082BF6D107F10C07BD4680BCE6
:100CC800704700BF80B400AFBD4680BC704700BF0E
:100CD80080B400AFFEE700BF80B400AFFEE700BFFE
:100CE80080B400AFFEE700BF80B400AFFEE700BFEE
:100CF80080B400AFBD4680BC704700BF80B400AF71
:100D0800BD4680BC704700BF80B400AFBD4680BC04
:100D1800704700BF80B400AF40F27813C2F20003FE
:100D28001B78DBB203F10103DAB240F27813C2F2A6
:100D380000031A70BD4680BC704700BF80B500AF85
:100D4800FFF7A8FD80BD00BF80B500AF4FF00000E1
:100D5800FFF7CAFA4FF0120004F0C8F980BD00BFCF
:100D6800002100F004B80E4B5B58435004310D4885
:100D78000D4B42189A42FFF4F6AF0C4A00F003B844
:100D8800002342F8043B0A4B9A42FFF4F9AFFFF7FD
:100D980063FE04F0C7F900F06FF8FFF7FEBF00002C
:100DA800B05200080000002048010020480100203F
:100DB8001C020020FFF7FEBF80B483B000AF0346DB
:100DC8003960FB7197F90730002B10DA4FF46D4347
:100DD800CEF20003FA7902F00F02A2F104013A6898
:100DE800D2B24FEA0212D2B25B181A760DE04FF473
:100DF8006143CEF2000397F907103A68D2B24FEA7E
:100E08000212D2B25B1883F8002307F10C07BD4623
:100E180080BC704780B582B000AF78607A686FF0A8
:100E28007F439A4202D94FF001031FE04EF21003AC
:100E3800CEF200037A6822F07F4202F1FF325A6054
:100E48004FF0FF304FF00F01FFF7B6FF4EF21003DF
:100E5800CEF200034FF000029A604EF21003CEF279
:100E680000034FF007021A604FF00003184607F11D
:100E78000807BD4680BD00BF80B582B000AF4FF007
:100E88000003FB7140F29810C2F2000003F0A0F9D1
:100E980040F29813C2F200035A6848F21F53C5F291
:100EA800EB13A3FB02134FEA53131846FFF7B2FFE5
:100EB80000F0CAF800F086F94FF000004FF000018A
:100EC80001F066F84FF0000000F0F8FFFFE700BF00
:100ED80040F27813C2F200031B78DBB2042BF7D17F
:100EE80040F27813C2F200034FF000021A7040F289
:100EF8006C10C2F2000000F097F94FF00003FB718C
:100F08001BE0FA79F97940F26C13C2F200034FEA58
:100F180081015B1893ED007ADFED4A7AC7EE277AF4
:100F280040F26C13C2F200034FEA82029B18C3ED31
:100F3800007AFB7903F10103FB71FB79022BE0D9FD
:100F480000F096F8024640F29413C2F200031A60C9
:100F580040F27C13C2F200031B68002B25D040F23C
:100F68009413C2F200031B681B78002B1DD140F2BA
:100F78009413C2F200031B6803F101031B78002BD2
:100F880013D140F29413C2F200031B6803F1020369
:100F98001B78002B09D140F29413C2F200031B689E
:100FA80003F103031B78002B16D040F2F003C2F2C2
:100FB80000034FF000021A7040F29413C2F20003CB
:100FC8001B684FF0810019464FF0040201F094F8B5
:100FD8004FF0010001F066F940F29413C2F20003E9
:100FE8001B681B78002B25D140F29413C2F2000332
:100FF8001B6803F101031B78002B1BD140F29413EB
:10100800C2F200031B6803F102031B78002B11D105
:1010180040F29413C2F200031B6803F103031B7828
:10102800002B07D140F27C13C2F200034FF00102FB
:101038001A604CE740F27C13C2F200034FF0000242
:101048001A6044E70000C84280B500AF00F0E0F93C
:1010580000F04CFA00F0B0FA01F0A4FD00BF40F235
:101068006413C2F200031B68052BF8D180BD00BFD2
:1010780080B500AF4FF0000000F070FF40F2801321
:10108800C2F200034FF000021A704FF0000000F0A7
:10109800F5FF0346002B12D000BF4FF0000000F010
:1010A800EDFF0346002BF8D04FF0000000F03CFFA6
:1010B80040F28013C2F200034FF001021A7040F2AE
:1010C8008013C2F200034FF000025A7040F28013FE
:1010D800C2F200034FF000029A7040F26C13C2F2A1
:1010E8000003D3ED017AFDEEE77A17EE903ADBB212
:1010F8005BB213F1020F0CDA40F28013C2F2000364
:101108005B7803F11403DAB240F28013C2F20003F1
:101118005A7040F26C13C2F20003D3ED017AFDEE6F
:10112800E77A17EE903ADBB25BB2022B0CDD40F2A5
:101138008013C2F200035B78A3F11403DAB240F221
:101148008013C2F200035A7040F26C13C2F200031B
:10115800D3ED007AFDEEE77A17EE903ADBB25BB298
:1011680013F1020F0CDA40F28013C2F200039B78ED
:1011780003F11403DAB240F28013C2F200039A704A
:1011880040F26C13C2F20003D3ED007AFDEEE77A69
:1011980017EE903ADBB25BB2022B0CDD40F2801303
:1011A800C2F200039B78A3F11403DAB240F2801371
:1011B800C2F200039A7040F28013C2F2000318468C
:1011C80080BD00BF80B584B000AF4FF000033B7214
:1011D8004FF040037B724FF00703BB724FF00003E0
:1011E800BB734FF000033B734FF000037B734FF06A
:1011F8000803FB7207F10803184600F0ABFA4FF03A
:1012080080033B714FF010037B714FF00003BB71FB
:101218004FF00003FB7107F10403184600F0DCFAF5
:1012280007F11007BD4680BD80B588B000AF786073
:101238004FF07E53FB614FF00003BB7607F11003BC
:101248004FF032004FF023011A464FF0020300F02E
:1012580017FC07F108034FF032004FF028011A4637
:101268004FF0060300F00CFC7B7C03F04003002BDE
:1012780003D04FF04003FB7602E04FF01003FB76FB
:101288003B7C03F04003002B04D07B7C03F040033D
:10129800002B2ED04FF00003BB7626E0BB7EBA7E33
:1012A8004FEA420202F1010207F12000821812F807
:1012B800182C4FEA022292B211B2BA7E4FEA4202C9
:1012C80007F12000821812F8182C8918FA7E91FB71
:1012D800F2F292B24FEA430307F12001CB1823F848
:1012E8000C2CBB7E03F10103BB76BB7E022BD5D948
:1012F8002DE04FF00003BB7626E0BB7EBA7E4FEAB6
:10130800420207F12000821812F8182C4FEA022234
:1013180092B211B2BA7E4FEA420202F1010207F11B
:101328002000821812F8182C8918FA7E91FBF2F224
:1013380092B24FEA430307F12001CB1823F80C2C93
:10134800BB7E03F10103BB76BB7E022BD5D907F127
:1013580010034FF032004FF023011A464FF00203FA
:1013680000F08EFB7B7C03F04003002B03D04FF092
:101378007A53FB6120E03B7C03F03003102B0DD047
:10138800102B02DC002B05D016E0202B0AD0302BC6
:101398000CD011E04FF07E53FB610DE04FF07C5311
:1013A800FB6109E04FF07A53FB6105E04CF69F536F
:1013B800C3F6AA53FB6100BF4FF00003BB761BE0E6
:1013C800BB7E4FEA83037A68D218BB7E4FEA430399
:1013D80007F12000C31833F80C3C1BB207EE903A13
:1013E800B8EEE77AD7ED077AC7EE277AC2ED007A2A
:1013F800BB7E03F10103BB76BB7E022BE0D907F16C
:101408002007BD4680BD00BF80B400AFFEE700BF27
:1014180080B582B000AF4FF080504FF0010103F06B
:10142800E3F94FF001004FF0010103F0B3F94FF475
:1014380000104FF0010103F083F94FF400304FF032
:10144800010103F07DF94FF4C0533B604FF00303F3
:101458007B714FF002033B714FF00003BB714FF0FB
:101468000003FB713B464FF09040194603F0C2FB66
:101478004FF090404FF00B014FF00E0203F09EFC2E
:101488004FF090404FF00C014FF00E0203F096FC25
:101498004FF0120003F02AFE40F2D813C2F2000304
:1014A8004FF012021A6040F2D813C2F200034FF054
:1014B80000021A7140F2D813C2F200034FF008027A
:1014C8005A7140F2D813C2F200034FF001029A7128
:1014D80040F2D810C2F2000003F0C4FC4FF0000044
:1014E80003F004FE07F10807BD4680BD80B500AFD4
:1014F8004FF0000003F014F94FF400004FF0010121
:1015080003F072F980BD00BF80B500AF40F26413EC
:10151800C2F200034FF003021A604FF0000003F01C
:10152800E5FD80BD80B582B000AF40F2F013C2F295
:1015380000037B604FF0010002F0C0FD02F0D6FD11
:1015480003461A4640F2D413C2F200031A7000BFD1
:101558004FF0110003F072F90346002BF8D04FF05A
:10156800010002F0F5FD00BF4FF0190003F066F925
:101578000346002BF8D04FF0020002F0F9FD00BF3F
:1015880002F016FE0346082BFAD17B689B7A002BE3
:1015980007D040F26413C2F200034FF005021A604C
:1015A80006E040F26413C2F200034FF001021A6031
:1015B80007F10807BD4680BD80B582B000AF4FF483
:1015C800A06003F08DF94FF014033B714FF0020354
:1015D8007B714FF00003BB714FF00103FB7107F102
:1015E8000403184603F090F94FF02A033B714FF0BB
:1015F80001037B714FF00103FB7107F104031846E7
:1016080003F082F94FF006033B714FF000037B7142
:1016180007F10403184603F077F907F10807BD46F8
:1016280080BD00BF80B582B000AF0346FB71FB7977
:10163800002B08D04FF48050C4F600004FF48041CE
:1016480003F0AEFB07E04FF48050C4F600004FF4FF
:10165800804103F097FB07F10807BD4680BD00BF36
:1016680080B584B000AF4FF2E873C1F6FF731B6812
:10167800FB604FF2EC73C1F6FF731B68BB604FF25F
:10168800F073C1F6FF731B687B60FA687B68D31838
:10169800FB60FB68002B0BD0F86807494FF0080285
:1016A80000F00EF8B86805494FF0040200F008F899
:1016B80007F11007BD4680BDD6000020E6000020D7
:1016C80080B487B000AFF860B9601346FB714FF083
:1016D8000003FB754FF00003FB7531E0FB684FEA30
:1016E8001373092B0DD8FB7D4FEA4303BA68D3184F
:1016F800FA684FEA1272D2B202F13002D2B21A700C
:101708000CE0FB7D4FEA4303BA68D318FA684FEA46
:101718001272D2B202F13702D2B21A70FB684FEAE3
:101728000313FB60FB7D4FEA430303F10103BA682F
:10173800D3184FF000021A70FB7D03F10103FB750B
:10174800FA7DFB799A42C9D307F11C07BD4680BCD4
:10175800704700BF80B584B000AF78604FF00003D9
:10176800FB734FF00003BB7300F0C0FA7B681A7874
:101778007B685B781343DAB27B689B781343DAB2F1
:10178800FB7B1343DBB2FB737B681A797B685B795D
:101798001343DAB27B689B791343DAB27B68DB7850
:1017A8001343DAB2BB7B1343DBB2BB7307F10F03FE
:1017B8004FF032004FF020011A4600F041F807F1CF
:1017C8000E034FF032004FF023011A4600F038F8AC
:1017D80007F11007BD4680BD80B584B000AF7860C2
:1017E80007F10F034FF032004FF021011A464FF076
:1017F800010300F045F9FB7B03F00C03DBB2FB733C
:101808007B681A787B685B781343DAB27B689B78CD
:101818001343DAB27B68DB781343DAB2FB7B1343FA
:10182800DBB2FB7307F10F034FF032004FF02101D9
:101838001A4600F005F807F11007BD4680BD00BF45
:1018480080B584B002AF0B463A600246FA71BB71AC
:1018580040F2F403C2F200034FF420421A6017E08A
:1018680040F2F403C2F200031B68002B14BF0022ED
:101878000122D2B203F1FF3140F2F403C2F20003B5
:101888001960002A04D0FFF7BFFD03469BB2F1E0C0
:101898004FF4A840C4F200004FF4004103F078F977
:1018A8000346002BDCD1FB799BB24FF40052009227
:1018B8004FF4A840C4F2000019464FF001024FF05F
:1018C800807303F019F940F2F403C2F200034FF4F5
:1018D80020421A6017E040F2F403C2F200031B68CA
:1018E800002B14BF00220122D2B203F1FF3140F2D3
:1018F800F403C2F200031960002A04D0FFF784FD44
:1019080003469BB2B6E04FF4A840C4F200004FF083
:10191800020103F03DF90346002BDCD0BB794FF4FC
:10192800A840C4F20000194603F016F940F2F40387
:10193800C2F200034FF420421A6017E040F2F403A9
:10194800C2F200031B68002B14BF00220122D2B28E
:1019580003F1FF3140F2F403C2F200031960002AD8
:1019680004D0FFF751FD03469BB283E04FF4A84033
:10197800C4F200004FF0800103F00AF90346002B7F
:10198800DCD0FB799BB24FF0000200924FF4A840E4
:10199800C4F2000019464FF001024FF0007303F043
:1019A800ABF840F2F403C2F200034FF420421A608D
:1019B80017E040F2F403C2F200031B68002B14BFC7
:1019C80000220122D2B203F1FF3140F2F403C2F245
:1019D80000031960002A04D0FFF716FD03469BB2E6
:1019E80048E04FF4A840C4F200004FF0020103F0B1
:1019F800CFF80346002BDCD03B681B784FF4A84097
:101A0800C4F20000194603F0A7F840F2F403C2F24A
:101A180000034FF420421A6017E040F2F403C2F2C8
:101A280000031B68002B14BF00220122D2B203F16D
:101A3800FF3140F2F403C2F200031960002A04D017
:101A4800FFF7E2FC03469BB214E04FF4A840C4F24F
:101A580000004FF0200103F09BF80346002BDCD078
:101A68004FF4A840C4F200004FF0200103F0B4F88E
:101A78004FF00003184607F10807BD4680BD00BFB8
:101A880080B584B002AF3A600246FA710A46BA716C
:101A9800BB8040F2F403C2F200034FF420421A6004
:101AA80017E040F2F403C2F200031B68002B14BFD6
:101AB80000220122D2B203F1FF3140F2F403C2F254
:101AC80000031960002A04D0FFF79EFC03469BB26E
:101AD80006E14FF4A840C4F200004FF4004103F0BF
:101AE80057F80346002BDCD1FB799BB24FF4005228
:101AF80000924FF4A840C4F2000019464FF00102CA
:101B08004FF0000302F0F8FF40F2F403C2F20003C2
:101B18004FF420421A6017E040F2F403C2F20003C7
:101B28001B68002B14BF00220122D2B203F1FF313F
:101B380040F2F403C2F200031960002A04D0FFF750
:101B480063FC03469BB2CBE04FF4A840C4F200000C
:101B58004FF0020103F01CF80346002BDCD0BB88D1
:101B6800012B03D9BB7963F07F03BB71BB794FF4B9
:101B7800A840C4F20000194602F0EEFF40F2F40358
:101B8800C2F200034FF420421A6017E040F2F40357
:101B9800C2F200031B68002B14BF00220122D2B23C
:101BA80003F1FF3140F2F403C2F200031960002A86
:101BB80004D0FFF729FC03469BB291E04FF4A840FC
:101BC800C4F200004FF0400102F0E2FF0346002B90
:101BD800DCD0FB799AB2BB88DBB24FF4105100918C
:101BE8004FF4A840C4F2000011461A464FF00073A3
:101BF80002F082FF3CE040F2F403C2F200034FF42B
:101C080020421A6017E040F2F403C2F200031B6896
:101C1800002B14BF00220122D2B203F1FF3140F29F
:101C2800F403C2F200031960002A04D0FFF7ECFBAA
:101C380003469BB254E04FF4A840C4F200004FF0B2
:101C4800040102F0A5FF0346002BDCD04FF4A840A6
:101C5800C4F2000002F08EFF03461A463B681A7071
:101C68003B6803F101033B60BB8803F1FF33BB8092
:101C7800BB88002BBFD140F2F403C2F200034FF43B
:101C880020421A6017E040F2F403C2F200031B6816
:101C9800002B14BF00220122D2B203F1FF3140F21F
:101CA800F403C2F200031960002A04D0FFF7ACFB6A
:101CB80003469BB214E04FF4A840C4F200004FF072
:101CC800200102F065FF0346002BDCD04FF4A8404A
:101CD800C4F200004FF0200102F07EFF4FF0000335
:101CE800184607F10807BD4680BD00BF80B58CB017
:101CF80000AF4FF400104FF0010102F075FD4FF4F2
:101D080080204FF0010102F01BFD4FF400104FF04E
:101D1800010102F015FD4FF400104FF0010102F02F
:101D28000FFD4FF400104FF0010102F009FD4FF4D0
:101D38008060C4F600004FF006014FF0040203F083
:101D48003DF84FF48060C4F600004FF007014FF0F3
:101D5800040203F033F84FF0020387F82C304FF0F9
:101D6800000387F82E304FF0020387F82F304FF02A
:101D7800030387F82D304FF04003BB6207F12803B7
:101D88004FF48060C4F60000194602F033FF4FF0AC
:101D98008003BB6207F128034FF48060C4F600009B
:101DA800194602F027FF4FF0000387F82C304FF058
:101DB800000387F82E304FF0000387F82F304FF0DC
:101DC800030387F82D304FF00403BB6207F12803A3
:101DD8004FF48050C4F60000194602F00BFF4FF094
:101DE80004004FF0020102F011F94FF002033B62C8
:101DF8004FF0000387F824304FF0080387F82530A8
:101E08004FF0010387F8263007F12003184603F046
:101E180029F84FF000033B614FF00003BB604FF01F
:101E28000003FB604FF000037B614FF00003BB61D0
:101E38004FF00003FB6142F22503C0F290037B6080
:101E480007F104034FF4A840C4F20000194602F059
:101E5800CFFD4FF4A840C4F200004FF0010102F09A
:101E68002FFE4FF01003BB624FF0000387F82C30B1
:101E78004FF0000387F82E304FF0030387F82D301A
:101E88004FF0000387F82F3007F128034FF48050F4
:101E9800C4F60000194602F0ADFE4FF02003BB6205
:101EA80007F128034FF48050C4F60000194602F0E9
:101EB800A1FE07F13007BD4680BD00BF80B584B0E4
:101EC80000AF0346FB71FA7945F25823C0F60003C8
:101ED80053F8223018464FF0010102F031FCFA792C
:101EE80045F24823C0F6000333F81230BB604FF0C8
:101EF80001033B734FF00003BB734FF00103FB7307
:101F08004FF003037B73FA7940F2F803C2F200033F
:101F180053F8222007F108031046194602F06AFE1A
:101F280007F11007BD4680BD80B483B000AF0346FB
:101F3800FB71FA7940F2F803C2F2000353F8222049
:101F4800F97945F24823C0F6000333F8113093615C
:101F580007F10C07BD4680BC704700BF80B483B052
:101F680000AF0346FB71FA7940F2F803C2F20003AE
:101F780053F82220F97945F24823C0F6000333F8D4
:101F88001130138507F10C07BD4680BC704700BFB0
:101F980080B588B000AF02460B46FA71BB71FA797A
:101FA80045F27C23C0F6000353F8223018464FF060
:101FB800010102F0C5FB4FF001004FF0010102F0F2
:101FC800E9FB4FF000033B774FF00003FB77FA790A
:101FD80045F27823C0F6000333F81230BB61FA7972
:101FE80040F21813C2F2000353F8222007F1180335
:101FF8001046194602F0FEFDBB79012B3AD1FA7959
:1020080045F28423C0F600039A5CF97945F28823E7
:10201800C0F600035B5C1046194601F0F7FFFA7939
:1020280045F28023C0F6000333F812303B614FF0CD
:1020380000033B754FF008037B754FF00103BB7538
:1020480007F11003184602F00DFFFA7945F28C23C8
:10205800C0F600039B5C3B734FF00F037B734FF09C
:102068000F03BB734FF00103FB7307F10C03184612
:1020780002F04AFC07F12007BD4680BD80B582B05A
:1020880000AF0346FB71FA7940F21813C2F200035D
:1020980053F82220F97945F27823C0F6000333F883
:1020A80011301046194602F04DFE0346184607F156
:1020B8000807BD4680BD00BF80B400AF45F6444365
:1020C800C4F200034FF000021A6040F21423C2F277
:1020D80000034FF43F421A8045F64043C4F2000320
:1020E80040F21422C2F2000212881A604FF0000374
:1020F8001846BD4680BC704780B584B000AF034623
:10210800B9607A60FB73FB7B03F07F03DBB2184690
:1021180000F0F6F903461A467B689BB2B868114688
:102128001A4600F0B1FAFB7B03F07F03DAB27B6852
:102138009BB21046194600F021FA4FF000031846EA
:1021480007F11007BD4680BD80B483B000AF0346D9
:10215800FB8045F65043C4F20003F9884FF6F87245
:102168000A401A6007F10C07BD4680BC704700BFE3
:1021780080B483B000AF02460B46FA71BB80FB798E
:102188004FEA830303F1804303F5B843FA794FEA32
:10219800820202F1804202F5B842126892B222F439
:1021A800EC4222F0700291B2BA880A4392B292B21B
:1021B8001A6007F10C07BD4680BC704790B482B026
:1021C80000AF02460B46FA71BB80FB794FEA8303E6
:1021D80003F1804303F5B8431B689BB223F4E04343
:1021E80023F040039CB2BB8803F010039BB2002B82
:1021F80002D084F010039CB2BB8803F020039BB28A
:10220800002B02D084F020039CB2FB794FEA8303B1
:1022180003F1804202F5B84248F28003CFF6FF731B
:1022280023439BB2136007F10807BD4690BC704773
:1022380090B482B000AF02460B46FA71BB80FB79BE
:102248004FEA830303F1804303F5B8431B689BB24D
:1022580023F4804323F070039CB2BB8803F48053BB
:102268009BB2002B02D084F480539CB2BB8803F449
:1022780000539BB2002B02D084F400539CB2FB792C
:102288004FEA830303F1804202F5B84248F2800323
:10229800CFF6FF7323439BB2136007F10807BD46CF
:1022A80090BC704790B482B000AF0346FB71FB79D5
:1022B8004FEA830303F1804303F5B8431B689BB2DD
:1022C80023F4E04323F040039CB284F010039CB253
:1022D80084F020039CB2FB794FEA830303F1804228
:1022E80002F5B84248F28003CFF6FF7323439BB24E
:1022F800136007F10807BD4690BC704790B482B0E0
:1023080000AF0346FB71FB794FEA830303F1804377
:1023180003F5B8431B689BB223F4804323F0700392
:102328009CB284F480539CB284F400539CB2FB7931
:102338004FEA830303F1804202F5B84248F2800372
:10234800CFF6FF7323439BB2136007F10807BD461E
:1023580090BC704780B483B000AF0346FB71FB7933
:102368004FEA830303F1804202F5B842FB794FEA52
:10237800830303F1804303F5B8431B689BB223F43E
:10238800F8734FEA03534FEA13539BB243F07F436A
:1023980043F47F0343F4004343F080039BB29BB2B2
:1023A800136007F10C07BD4680BC704780B483B04A
:1023B80000AF0346FB71FB794FEA830303F18043C7
:1023C80003F5B8431B689BB203F48043002B18D075
:1023D800FB794FEA830303F1804303F5B843FA79A5
:1023E8004FEA820202F1804202F5B842126892B2C4
:1023F800114640F60F720A4042F4404242F0800211
:102408001A6007F10C07BD4680BC704780B483B0E2
:1024180000AF0346FB71FB794FEA830303F1804366
:1024280003F5B8431B689BB203F04003002B18D098
:10243800FB794FEA830303F1804303F5B843FA7944
:102448004FEA820202F1804202F5B842126892B263
:10245800114640F60F720A4042F4004242F0C002B0
:102468001A6007F10C07BD4680BC704780B483B082
:1024780000AF02460B46FA71BB8045F65043C4F2E2
:1024880000031B689BB21A46FB794FEAC303D318B3
:1024980003F1005303F540534FEA4303BA884FEA68
:1024A800520292B24FEA42021A6007F10C07BD4687
:1024B80080BC704780B483B000AF02460B46FA7107
:1024C800BB8045F65043C4F200031B689BB21A4612
:1024D800FB794FEAC303D21843F20403C2F20003A4
:1024E800D3184FEA4303BA884FEA520292B24FEA2E
:1024F80042021A6007F10C07BD4680BC704700BF56
:1025080080B483B000AF0346FB7145F65043C4F274
:1025180000031B689BB21A46FB794FEAC303D31822
:1025280003F1005303F540534FEA43031B689BB282
:10253800184607F10C07BD4680BC704780B483B0CD
:1025480000AF0346FB7145F65043C4F200031B6815
:102558009BB21A46FB794FEAC303D21843F204032D
:10256800C2F20003D3184FEA43031B689BB2184614
:1025780007F10C07BD4680BC704700BF80B483B02C
:1025880000AF02460B46FA71BB8045F65043C4F2D1
:1025980000031B689BB21A46FB794FEAC303D218A3
:1025A80043F20203C2F20003D3184FEA4303BA8886
:1025B8001A6007F10C07BD4680BC704780B485B02F
:1025C80000AF02460B46FA71BB8045F65043C4F291
:1025D80000031B689BB21A46FB794FEAC303D21863
:1025E80043F20603C2F20003D3184FEA4303BB6069
:1025F800BB883E2B15D9BB884FEA5313FB81BB8898
:1026080003F01F03002B03D1FB8903F1FF33FB8188
:10261800FB894FEA832343F400431A46BB681A60D8
:1026280012E0BB884FEA5303FB81BB8803F0010328
:10263800002B03D0FB8903F10103FB81FB894FEADF
:1026480083231A46BB681A6007F11407BD4680BC8D
:10265800704700BF80B485B000AF0346FB80FB889D
:10266800FB73FB884FEA13239BB29AB2FB7B4FEABA
:1026780003239BB213439BB2BB81BB89184607F166
:102688001407BD4680BC704780B489B000AF78603D
:1026980013460A467A803B803B8803F101034FEAE0
:1026A80063037B617B8803F1005303F540534FEAD2
:1026B8004303BB617B69FB6122E07B681B783B615C
:1026C8007B6803F101037B607B681B784FEA032377
:1026D8001A463B691343FB60FB689AB2BB691A80D0
:1026E800BB6903F10203BB61BB6903F10203BB6170
:1026F8007B6803F101037B60FB6903F1FF33FB6136
:10270800FB69002BD9D107F12407BD4680BC70476F
:1027180080B487B000AF786013460A467A803B8061
:102728003B8803F101034FEA6303FB607B8803F1F5
:10273800005303F540534FEA43033B61FB687B6159
:1027480014E03B691B689AB27B681A807B6803F1C6
:1027580001037B603B6903F104033B617B6803F180
:1027680001037B607B6903F1FF337B617B69002B8D
:10277800E7D107F11C07BD4680BC704790B583B010
:1027880000AF4FF00003FB80F5E140F29013C2F276
:1027980000031B889BB2DBB203F00F03DAB240F2EE
:1027A800EC13C2F200031A7040F2EC13C2F20003F9
:1027B8001B78002B40F06F814FF4B843C4F200033C
:1027C8001B689AB240F2E013C2F200031A8040F28A
:1027D800E013C2F200031B889BB203F030039AB2E5
:1027E80040F2E213C2F200031A8040F2E013C2F290
:1027F80000031B889BB203F440539AB240F2E013E3
:10280800C2F200031A804FF4B843C4F200031B68F5
:102818009BB24BF6BF741C4084F4005484F020042F
:102828004FF4B842C4F20002A1B248F28003CFF6D6
:10283800FF730B439BB2136040F29013C2F2000384
:102848001B889BB203F01003002B5AD14FF4B843F6
:10285800C4F200034FF4B842C4F20002126892B204
:10286800114648F60F720A401A6001F0B1FA4FF4A7
:10287800B843C4F200031B689BB24BF6BF741C40FC
:1028880040F2E013C2F200031B889BB203F48053AA
:102898009BB2002B01D084F4805440F2E013C2F2C2
:1028A80000031B889BB203F400539BB2002B01D09A
:1028B80084F4005440F2E213C2F200031B889BB276
:1028C80003F010039BB2002B01D084F0100440F2F7
:1028D800E213C2F200031B889BB203F020039BB2F1
:1028E800002B01D084F020044FF4B842C4F2000257
:1028F800A1B248F28003CFF6FF730B439BB213607B
:102908004BE14FF4B843C4F200031B689BB2FB8051
:10291800FB889BB203F40063002B5AD04FF4B843F2
:10292800C4F200034FF4B842C4F20002126892B233
:10293800114640F68F720A401A6001F0B9F94FF457
:10294800B843C4F200031B689BB24BF6BF741C402B
:1029580040F2E013C2F200031B889BB203F48053D9
:102968009BB2002B01D084F4805440F2E013C2F2F1
:1029780000031B889BB203F400539BB2002B01D0C9
:1029880084F4005440F2E213C2F200031B889BB2A5
:1029980003F010039BB2002B01D084F0100440F226
:1029A800E213C2F200031B889BB203F020039BB220
:1029B800002B01D084F020044FF4B842C4F2000286
:1029C800A1B248F28003CFF6FF730B439BB21360AA
:1029D800E3E0FB889BB29BB21BB2002B80F2CB805A
:1029E8004FF4B843C4F200034FF4B842C4F20002F3
:1029F800126892B2114640F68F720A401A6001F0CE
:102A080045FA4FF4B843C4F200031B689BB24BF677
:102A1800BF741C4040F2E013C2F200031B889BB253
:102A280003F480539BB2002B01D084F4805440F20D
:102A3800E013C2F200031B889BB203F400539BB25D
:102A4800002B01D084F4005440F2E213C2F20003D8
:102A58001B889BB203F010039BB2002B01D084F0BB
:102A6800100440F2E213C2F200031B889BB203F089
:102A780020039BB2002B01D084F020044FF4B8420D
:102A8800C4F20002A1B248F28003CFF6FF730B43F1
:102A98009BB2136081E040F2EC13C2F200031B7892
:102AA8004FEA830303F1804303F5B8431B689BB2E5
:102AB800FB80FB889BB29BB21BB2002B2ADA40F248
:102AC800EC13C2F200031B784FEA830303F180433F
:102AD80003F5B84340F2EC12C2F2000212784FEA52
:102AE800820202F1804202F5B842126892B211469F
:102AF80040F68F720A401A6040F2EC13C2F20003EB
:102B08001B7803F1FF3240F2B803C2F2000353F816
:102B180022309847FB889BB203F08003002B2AD011
:102B280040F2EC13C2F200031B784FEA830303F16F
:102B3800804303F5B84340F2EC12C2F20002127867
:102B48004FEA820202F1804202F5B842126892B25C
:102B5800114648F60F720A401A6040F2EC13C2F2AE
:102B680000031B7803F1FF3240F29C03C2F200031A
:102B780053F82230984745F64443C4F200031B68D3
:102B88009BB21A4640F29013C2F200031146198014
:102B980093B21BB2002BFFF6F8AD07F10C07BD4648
:102BA80090BD00BF80B500AF40F21023C2F2000311
:102BB80040F2F012C2F200021A6040F21023C2F290
:102BC80000031B684FF002021A7240F2E813C2F2C7
:102BD800000340F20802C2F200021A6040F20C231D
:102BE800C2F2000340F23802C2F200021A6040F258
:102BF800E813C2F200031B681B68984780BD00BF3A
:102C080080B582B000AF0346FB80FB88002B0AD159
:102C180040F21023C2F200031B684FF001021A822F
:102C28004FF000030DE040F20C23C2F200031B68D2
:102C38001B68984740F21023C2F200031B6803F197
:102C48000A03184607F10807BD4680BD80B500AFE6
:102C580040F21023C2F200031B68DA7840F2040342
:102C6800C2F200035B789A4225D840F21023C2F2E0
:102C780000031B689B78002B1DD140F21023C2F281
:102C880000031B689B88002B15D140F21023C2F269
:102C980000031A6840F21023C2F200031B68DB78B5
:102CA800937240F20C23C2F200031B685B689847DA
:102CB8004FF0000301E04FF00203184680BD00BF4B
:102CC80080B582B000AF0346FB80FB88002B0AD199
:102CD80040F21023C2F200031B684FF001021A826F
:102CE8004FF000030DE040F20C23C2F200031B6812
:102CF8009B68984740F21023C2F200031B6803F157
:102D08000C03184607F10807BD4680BD80B582B0A0
:102D180000AF40F2E813C2F200031B689A6940F260
:102D28001023C2F200031B68597940F21023C2F243
:102D380000031B68DB780846194690470346FB7179
:102D480040F21023C2F200031B689B7A002B3AD092
:102D5800FB79002B0FD140F21023C2F200031B684D
:102D68001B79002B07D140F21023C2F200031B6825
:102D78009B78002B02D04FF0020326E0FB79002B52
:102D880021D140F20C23C2F200031B68DB6898478C
:102D980040F21023C2F200031A6840F21023C2F274
:102DA80000031B685B79D37240F21023C2F2000360
:102DB8001A6840F21023C2F200031B68DB78137311
:102DC8004FF0000301E04FF00203184607F108072F
:102DD800BD4680BD80B584B000AF0346FB80FB884C
:102DE800002B0AD140F21023C2F200031B684FF0F7
:102DF80002021A824FF00003C5E040F21823C2F223
:102E080000034FF000021A8040F21023C2F20003C0
:102E18001B681B7803F07F03002B47D140F2102377
:102E2800C2F200031B685B7AFB73FB7B03F0200391
:102E3800002B0DD040F21823C2F200031B7843F098
:102E48000203DAB240F21823C2F200031A700CE04F
:102E580040F21823C2F200031B7823F00203DAB20F
:102E680040F21823C2F200031A70FB7B03F0400300
:102E7800002B0DD040F21823C2F200031B7843F058
:102E88000103DAB240F21823C2F200031A706FE0AD
:102E980040F21823C2F200031B7823F00103DAB2D0
:102EA80040F21823C2F200031A7061E040F21023C6
:102EB800C2F200031B681B7803F07F03012B04D1C7
:102EC80040F21823C2F200035DE040F21023C2F280
:102ED80000031B681B7803F07F03022B45D140F2E7
:102EE8001023C2F200031B685B79BB73BB7B03F042
:102EF8000F037B73BB7B5BB2002B1ADA7B7B4FEA39
:102F0800830303F1804303F5B8431B689BB203F0C6
:102F18003003102B2CD140F21823C2F200031B7887
:102F280043F00103DAB240F21823C2F200031A7028
:102F38001EE07B7B4FEA830303F1804303F5B8432C
:102F48001B689BB203F44053B3F5805F10D140F285
:102F58001823C2F200031B7843F00103DAB240F2EF
:102F68001823C2F200031A7002E04FF000030AE0CF
:102F780040F20C23C2F200031B681B69984740F219
:102F88001823C2F20003184607F11007BD4680BD9A
:102F980090B587B000AF40F21023C2F200031B685F
:102FA8001B7803F07F033B613B69002B11D140F292
:102FB8001023C2F200031A6840F21023C2F2000381
:102FC8001B685B7A23F02003DBB253724FF00003D7
:102FD800F1E03B69022B40F0EC8040F21023C2F292
:102FE80000031B685B88002B07D140F21023C2F254
:102FF80000031B681B79002B02D04FF00203DAE0B4
:1030080040F20403C2F20003FB6040F21023C2F254
:1030180000031B685B79BB60BB6823F080037B609F
:103028007B683B6040F21023C2F200031B685B79A7
:10303800DBB25BB2002B0CDA3B684FEA830303F187
:10304800804303F5B8431B689BB203F030037B61F0
:103058000BE03B684FEA830303F1804303F5B84371
:103068001B689BB203F440537B61FB681B781A46CC
:103078007B689A420AD97B69002B07D040F210235B
:10308800C2F200031B689B7A002B02D14FF00203A7
:1030980091E0BB6803F08003002B19D03B684FEA2E
:1030A800830303F1804303F5B8431B689BB203F025
:1030B8003003102B73D13B68DBB21846FFF7A6F933
:1030C8003B68DBB218464FF03001FFF777F866E04F
:1030D8003B684FEA830303F1804303F5B8431B6859
:1030E8009BB203F44053B3F5805F58D13B68002B83
:1030F8002ED13B68DAB240F20803C2F2000393F81B
:103108002C3010461946FFF759FA3B684FEA8303FB
:1031180003F1804303F5B8431B689BB223F4804353
:1031280023F070039CB284F480539CB284F400535F
:103138009CB23B684FEA830303F1804202F5B84230
:1031480048F28003CFF6FF7323439BB2136026E057
:103158003B68DBB21846FFF729F93B684FEA83035F
:1031680003F1804303F5B8431B689BB223F4804303
:1031780023F070039CB284F480539CB284F400530F
:103188009CB23B684FEA830303F1804202F5B842E0
:1031980048F28003CFF6FF7323439BB2136040F2DB
:1031A8000C23C2F200031B685B6998474FF00003C9
:1031B80001E04FF00203184607F11C07BD4690BD19
:1031C80090B585B000AF40F21023C2F200031B682F
:1031D8005B79BB60BB6823F080037B607B683B60E6
:1031E80040F21023C2F200031B685B79DBB25BB2CA
:1031F800002B0CDA3B684FEA830303F1804303F5A5
:10320800B8431B689BB203F03003FB600BE03B68DC
:103218004FEA830303F1804303F5B8431B689BB26D
:1032280003F44053FB6040F20403C2F200031B782E
:103238001A463B689A4212D940F21023C2F20003A0
:103248001B685B88002B0AD1FB68002B07D040F273
:103258001023C2F200031B689B7A002B02D14FF0A7
:1032680002034CE0BB6803F08003002B1FD03B68CF
:103278004FEA830303F1804303F5B8431B689BB20D
:1032880023F4E04323F040039CB284F010039CB283
:103298003B684FEA830303F1804202F5B84248F2E3
:1032A8008003CFF6FF7323439BB213601EE03B6895
:1032B8004FEA830303F1804303F5B8431B689BB2CD
:1032C80023F4804323F070039CB284F480539CB2AF
:1032D8003B684FEA830303F1804202F5B84248F2A3
:1032E8008003CFF6FF7323439BB2136040F20C2395
:1032F800C2F200031B689B6998474FF00003184609
:1033080007F11407BD4690BD80B500AF40F2102309
:10331800C2F200031A6840F21023C2F200031B68CD
:103328005B7A43F02003DBB2537240F20C23C2F203
:1033380000031B68DB6998474FF00003184680BDFF
:1033480080B485B000AF03463960FB8040F210239B
:10335800C2F200031B685B8AFB60FB88002B0ED15E
:1033680040F21023C2F200031B683A689188FA6899
:1033780092B28A1A92B21A824FF0000303E03B68B5
:103388001A68FB68D318184607F11407BD4680BCB5
:10339800704700BF80B584B000AF40F21023C2F27E
:1033A80000031B6803F11003BB60BB681B887B60CC
:1033B800BB689B68002B2FD07B68002B2CD0BB6888
:1033C8009B88FB60FA687B689A4201D97B68FB603E
:1033D800BB689B68FA6892B2104698473860BB6829
:1033E8001A88FB689BB2D31A9AB2BB681A80BB686A
:1033F8005A88FB689BB2D3189AB2BB685A804FF0C0
:103408000000FFF79BF803461A46FB689BB2386832
:1034180011461A46FFF77CF9BB681B88002B13D0AE
:1034280040F2E013C2F200034FF440521A804FF00A
:1034380000004FF00001FFF7A1F840F2E213C2F2DA
:1034480000034FF030021A80BB681A88BB689B885B
:103458009A4208D340F21023C2F200031B684FF0CF
:1034680003021A7230E0BB681B88002B08D040F2B8
:103478001023C2F200031B684FF005021A7223E002
:10348800BB681B88002B1FD140F21023C2F2000337
:103498001B684FF006021A7245F65043C4F2000347
:1034A8001B689BB21A4643F20203C2F20003D31808
:1034B8004FEA43034FF000021A6040F2E213C2F2EF
:1034C80000034FF030021A8007F11007BD4680BD97
:1034D80080B586B000AF40F21023C2F200031B682B
:1034E80003F11003FB60FB681B88BB6040F21023EC
:1034F800C2F200031B681B7A7B61BB68002B37D1C3
:103508007B69042B34D140F28413C2F200031B7888
:10351800012B22D145F65043C4F200031B689BB22D
:103528001A4643F20203C2F20003D3184FEA4303D8
:103538004FF000021A6040F2E213C2F200034FF0AB
:1035480030021A804FF004037B6140F28413C2F208
:1035580000034FF000021A7056E04FF007037B613A
:1035680040F2E213C2F200034FF010021A804BE05F
:10357800FB689B883B61BA683B699A4202D84FF066
:10358800040301E04FF002037B613A69BB689A4289
:1035980001D9BB683B61FB689B683A6992B21046E7
:1035A800984778604FF00000FEF7AAFF03461A46D6
:1035B8003B699BB2786811461A46FFF765F83B6984
:1035C8009BB24FF000001946FEF7D8FFFB681A8837
:1035D8003B699BB2D31A9AB2FB681A80FB685A8877
:1035E8003B699BB2D3189AB2FB685A8040F2E21347
:1035F800C2F200034FF030021A8040F2E013C2F228
:1036080000034FF440521A8040F21023C2F2000324
:103618001B687A69D2B21A7207F11807BD4680BDD5
:1036280080B584B000AF4FF00203FB7340F2102363
:10363800C2F200031B685B787B6040F21023C2F281
:1036480000031B681B7803F07F03002B76D17B688F
:10365800092B04D1FFF7FAFA0346FB739EE07B6857
:10366800052B29D140F21023C2F200031B68DB7836
:10367800DBB25BB2002B17DB40F21023C2F200036F
:103688001B689B78002B0FD140F21023C2F2000375
:103698001B689B88002B07D140F21023C2F200035D
:1036A8001B689B7A002B03D04FF00803BB60AEE089
:1036B8004FF00003FB7371E07B68032B18D140F2D5
:1036C8001023C2F200031B68DB78012B0CD140F2F7
:1036D8001023C2F200031B689B88002B04D1FFF75C
:1036E80013FE0346FB7359E04FF00203FB7356E0E9
:1036F8007B68012B52D140F21023C2F200031B68F1
:10370800DB78012B16D140F21023C2F200031B68AC
:103718009B88002B0ED140F21023C2F200031B68D5
:103728005B7A03F02003002B04D0FFF731FC03463B
:10373800FB7334E04FF00203FB732FE040F21023D9
:10374800C2F200031B681B7803F07F03012B07D12B
:103758007B680B2B23D1FFF7D9FA0346FB731EE0D6
:1037680040F21023C2F200031B681B7803F07F03AA
:10377800022B0FD17B68012B04D1FFF709FC03460C
:10378800FB730CE07B68032B09D1FFF719FD034697
:10379800FB7304E04FF00203FB7300E000BFFB7B08
:1037A800002B12D040F2E813C2F200031B685B69D9
:1037B8007A68D2B2104698470346FB73FB7B032B0B
:1037C80003D14FF00903BB6021E0FB7B002B03D042
:1037D8004FF00803BB601AE04FF00603BB6045F6E4
:1037E8005043C4F200031B689BB21A4643F202031B
:1037F800C2F20003D3184FEA43034FF000021A60E5
:1038080040F2E213C2F200034FF030021A8040F295
:103818001023C2F200031B68BA68D2B21A7200BF42
:1038280007F11007BD4680BD80B58AB000AF40F2F1
:103838001023C2F200031B685B78BB614FF00003E2
:103848007B624FF000037B61BB69062B33D140F2EA
:103858001023C2F200031B681B7803F07F03002BC0
:1038680040F03C8140F21023C2F200031B689B78B1
:10387800FB74FB7C012B07D140F2E813C2F2000372
:103888001B68DB697B6229E1FB7C022B07D140F2D4
:10389800E813C2F200031B681B6A7B621EE1FB7C13
:1038A800032B40F01B8140F2E813C2F200031B68AF
:1038B8005B6A7B6212E1BB69002B40F0B58040F285
:1038C8001023C2F200031B685B88002B40F0AC8019
:1038D80040F21023C2F200031B68DB88022B40F081
:1038E800A38040F21023C2F200031B681B79002B4F
:1038F80040F09A8040F21023C2F200031B681B7844
:1039080003F07F03002B0DD140F21023C2F2000315
:103918001B689B88002B05D142F6DD53C0F60003D7
:103928007B62DAE040F21023C2F200031B681B78C6
:1039380003F07F03012B22D140F2E813C2F2000307
:103948001B689A6940F21023C2F200031B685B7976
:1039580018464FF0000190470346002B40F0BD8009
:1039680040F21023C2F200031B689B7A002B00F080
:10397800B48042F6DD53C0F600037B62ADE040F24E
:103988001023C2F200031B681B7803F07F03022B8D
:1039980040F0A38040F21023C2F200031B685B7959
:1039A80003F00F03FB6040F21023C2F200031B6810
:1039B8005B7903F07003BB6040F21023C2F200038E
:1039C8001B685B79DBB25BB2002B0CDAFB684FEA51
:1039D800830303F1804303F5B8431B689BB203F0EC
:1039E8003003FB610BE0FB684FEA830303F180437C
:1039F80003F5B8431B689BB203F44053FB6140F2E4
:103A08000403C2F200031B781A46FB689A4264D981
:103A1800BB68002B61D1FB69002B5ED042F6DD53F9
:103A2800C0F600037B6258E0BB69082B0FD140F257
:103A38001023C2F200031B681B7803F07F03002BDE
:103A48004CD142F60943C0F600037B6246E0BB69ED
:103A58000A2B43D140F21023C2F200031B681B78E3
:103A680003F07F03012B39D140F21023C2F2000387
:103A78001B689B7A002B31D040F21023C2F200035E
:103A88001B685B88002B29D140F21023C2F2000387
:103A98001B681B79002B21D140F21023C2F20003CE
:103AA8001B68DB88012B19D140F2E813C2F200032E
:103AB8001B689A6940F21023C2F200031B685B7905
:103AC80018464FF0000190470346002B06D142F6F6
:103AD800C943C0F600037B6200E000BF7B6A002B8D
:103AE80017D040F21023C2F200031B687A6992B221
:103AF8005A8240F21023C2F200031B687A6A9A6164
:103B08007B6A4FF0000098474FF0000387F8233096
:103B18001DE040F2E813C2F200031B681A6940F284
:103B28001023C2F200031B685B78184690470346CF
:103B380087F8233097F82330032B08D140F210235D
:103B4800C2F200031B684FF009021A72ACE040F29F
:103B58001023C2F200031B681A8A4FF6FF739A42B9
:103B680008D140F21023C2F200031B684FF009028B
:103B78001A7299E097F82330022B07D040F21023ED
:103B8800C2F200031B681B8A002B08D140F21023E5
:103B9800C2F200031B684FF008021A7284E040F278
:103BA8001023C2F200031B681B78DBB25BB2002B48
:103BB8006ADA40F21023C2F200031B68DB887B60DC
:103BC80040F21023C2F200031B681B8A1A467B6866
:103BD8009A4208D940F21023C2F200031B687A689F
:103BE80092B21A8240E040F21023C2F200031B682E
:103BF8001A8A40F21023C2F200031B68DB889A423B
:103C080032D240F21023C2F200031B681A8A40F233
:103C1800E813C2F200031B6893F82C309A4207D2CB
:103C280040F28413C2F200034FF000021A701BE046
:103C380040F21023C2F200031B681B8A1A4640F2A6
:103C4800E813C2F200031B6893F82C3092FBF3F1DF
:103C580003FB01F3D31A002B06D140F28413C2F2FE
:103C680000034FF001021A7040F21023C2F2000361
:103C78001A6840F2E813C2F200031B6893F82C306C
:103C88009382FFF725FC0EE040F21023C2F20003F6
:103C98001B684FF003021A7240F2E013C2F20003ED
:103CA8004FF440521A8000BF07F12807BD4680BD77
:103CB80090B583B000AF4FF00103FB8045F6504349
:103CC800C4F200031B689BB21A4643F20403C2F213
:103CD8000003D3184FEA43031B689BB24FEA430320
:103CE80003F1804303F5C0433B6040F21023C2F266
:103CF80000031B681B7A092B4DD040F21023C2F237
:103D080000031A683B681978117003F101033B60DE
:103D180040F21023C2F200031A683B681978517008
:103D280003F101033B603A68FB884FEA4303D31869
:103D38003B6040F21023C2F200031C683B681A88FB
:103D480003F102033B601046FEF784FC03466380E0
:103D58003A68FB884FEA4303D3183B6040F21023CC
:103D6800C2F200031C683B681A8803F102033B6037
:103D78001046FEF76FFC0346A3803A68FB884FEABB
:103D88004303D3183B6040F21023C2F200031B68C0
:103D98003A681288DA8040F21023C2F200031B68E6
:103DA8004FF001021A7240F21023C2F200031B689E
:103DB800DB88002B02D1FFF733FC01E0FFF734FD6D
:103DC80000F0AAF80346184607F10C07BD4690BD57
:103DD80080B582B000AF40F21023C2F200031B6826
:103DE8001B7A7B607B68022B02D07B68042B09D18D
:103DF800FFF76EFB40F21023C2F200031B681B7A28
:103E08007B6032E07B68062B2CD140F21023C2F293
:103E180000031B685B78052B19D140F21023C2F20E
:103E280000031B681B7803F07F03002B0FD140F2BF
:103E38001023C2F200031B68DB78184600F09CF8D8
:103E480040F20C23C2F200031B681B6A984740F239
:103E5800E813C2F200031B689B6898474FF00803F9
:103E68007B6002E04FF008037B6040F21023C2F24F
:103E780000031B687A68D2B21A7200F04DF8034644
:103E8800184607F10807BD4680BD00BF80B582B05F
:103E980000AF40F21023C2F200031B681B7A7B605C
:103EA8007B68022B02D07B68042B03D14FF00803F8
:103EB8007B6020E07B68032B02D07B68052B09D14F
:103EC800FFF768FA40F21023C2F200031B681B7A5E
:103ED8007B6010E07B68072B0AD140F2E813C2F23E
:103EE80000031B68DB6898474FF008037B6002E01B
:103EF8004FF008037B6040F21023C2F200031B68F6
:103F08007A68D2B21A7200F007F80346184607F129
:103F18000807BD4680BD00BF80B500AF40F208036A
:103F2800C2F2000393F82C304FF000001946FEF758
:103F380045FB40F21023C2F200031B681B7A082BD2
:103F48000DD140F2E013C2F200034FF480521A8000
:103F580040F2E213C2F200034FF010021A8040F25E
:103F68001023C2F200031B681B7A092B14BF00231D
:103F78000123DBB2184680BD80B485B000AF03468C
:103F8800FB7140F20403C2F200031B78BB604FF0E0
:103F98000003FB6021E0FB68DBB24FEA830303F117
:103FA800804303F5B843FA68D2B24FEA820202F1BD
:103FB800804202F5B842126892B2114640F60F727A
:103FC8000A4042F4004242F08002F968C9B20A434A
:103FD8001A60FB6803F10103FB60FA68BB689A4248
:103FE800D9D345F64C43C4F20003FA7962F07F0254
:103FF800D2B21A6007F11407BD4680BC704700BFF3
:1040080080B400AFBD4680BC704700BF90B484B098
:1040180000AF02460B46FA71BB714FF00003FB601C
:10402800BB7903F003034FEA83034FF00F0202FA50
:1040380003F3FB604FF00003C4F20103BA794FEABF
:104048009202D2B210464FF00002C4F20102B979CE
:104058004FEA9101C9B201F1020152F82110FA6840
:104068006FEA0202114000F1020243F822104FF0F9
:104078000003C4F20103BA794FEA9202D2B21046A1
:104088004FF00002C4F20102B9794FEA9101C9B2B6
:1040980001F1020152F82110FC79BA7902F0030209
:1040A8004FEA820204FA02F2114300F1020243F8D5
:1040B800221007F11007BD4690BC704780B483B04A
:1040C80000AF0346FB7141F20203C4F202034FF052
:1040D80000021A7041F20203C4F20203FA791A705C
:1040E80007F10C07BD4680BC704700BF80B582B0A1
:1040F80000AF4FF000033B604FF00003FB714FF03F
:104108000003BB714FF0110000F098FB0346BB7130
:104118003B6803F101033B603B68B3F5A06F02D035
:10412800BB79002BEED04FF0110000F087FB03465F
:10413800002B03D04FF00103FB7102E04FF00003A6
:10414800FB71FB79184607F10807BD4680BD00BF23
:1041580080B483B000AF0346FB714FF06003C4F234
:104168004223FA791A6007F10C07BD4680BC7047F4
:1041780080B485B000AF78604FF00003FB604FF467
:104188008053C4F202035B68FB60FB6823F00303FF
:10419800FB60FA687B681343FB604FF48053C4F2FA
:1041A8000203FA685A6007F11407BD4680BC7047DD
:1041B80080B400AF4FF48053C4F202035B68DBB2F3
:1041C80003F00C03DBB21846BD4680BC704700BF45
:1041D80080B48BB000AF78604FF000033B624FF0C3
:1041E8000003FB614FF00003BB614FF000037B61EC
:1041F8004FF000033B614FF000037B624FF0000378
:10420800FB604FF00003BB604FF48053C4F202031D
:104218005B6803F00C033B623B6A042B0AD0082B53
:104228000FD0002B48D17A684FF49053C0F27A032C
:10423800136048E07A684FF49053C0F27A03136031
:1042480041E04FF48053C4F202035B6803F4701337
:10425800FB614FF48053C4F202035B6803F48033BC
:10426800BB61FB694FEA934303F10203FB61BB693E
:10427800002B08D1FA694FF41063C0F23D0303FB29
:1042880002F37B6214E04FF48053C4F20203DB6A4A
:1042980003F00F0303F101037B614FF49053C0F265
:1042A8007A037A69B3FBF2F3FA6902FB03F37B62E0
:1042B8007B687A6A1A6006E07A684FF49053C0F215
:1042C8007A03136000BF4FF48053C4F202035B68A3
:1042D80003F0F0033B623B6A4FEA13133B6240F280
:1042E8001C13C2F200033A6A9B181B78DBB2BB604E
:1042F8007B681A68BB6822FA03F27B685A604FF43D
:104308008053C4F202035B6803F4E0633B623B6AD8
:104318004FEA13233B6240F21C13C2F200033A6ACD
:104328009B181B78DBB23B617B685A683B6922FAB1
:1043380003F27B689A604FF48053C4F202035B680F
:1043480003F460533B623B6A4FEAD3233B6240F27B
:104358001C13C2F200033A6A9B181B78DBB2FB609D
:104368007B685A68FB6822FA03F27B68DA604FF4CC
:104378008053C4F20203DB6A03F4F8733B623B6ABE
:104388004FEA13133B6240F22C13C2F200033A6A5D
:1043980033F812309BB23B613B6903F01003002BEA
:1043A80006D07A6A3B69B2FBF3F27B681A6103E0D4
:1043B8007B681A687B681A614FF48053C4F2020361
:1043C800DB6A03F478533B623B6A4FEA53233B6250
:1043D80040F22C13C2F200033A6A33F812309BB24F
:1043E8003B613B6903F01003002B06D07A6A3B69F6
:1043F800B2FBF3F27B685A6103E07B681A687B685A
:104408005A614FF48053C4F202031B6B03F010038C
:10441800002B06D17A684FF49053C0F27A03936167
:1044280003E07B681A687B689A614FF48053C4F292
:1044380002031B6B03F02003002B06D17A684FF4AC
:104448009053C0F27A03D36103E07B681A687B68F3
:10445800DA614FF48053C4F202031B6B03F48073D8
:10446800002B0ED07B681A687B6A9A4209D1FA68D9
:10447800BB689A4205D17B6A4FEA43027B681A629D
:1044880003E07B68DA687B681A624FF48053C4F2F1
:1044980002031B6B03F40073002B0ED07B681A68B1
:1044A8007B6A9A4209D1FA68BB689A4205D17B6A4D
:1044B8004FEA43027B685A6203E07B68DA687B68EC
:1044C8005A624FF48053C4F202031B6B03F00303D8
:1044D800002B04D17B68DA687B689A622AE04FF483
:1044E8008053C4F202031B6B03F00303012B04D1B6
:1044F8007B681A687B689A621CE04FF48053C4F2A8
:1045080002031B6B03F00303022B04D17B684FF4F7
:1045180000429A620EE04FF48053C4F202031B6B10
:1045280003F00303032B05D17A684FF49053C0F2CC
:104538007A0393624FF48053C4F202031B6B03F4B3
:104548004033002B04D17B689A687B68DA622DE0DF
:104558004FF48053C4F202031B6B03F44033B3F5EA
:10456800803F04D17B681A687B68DA621EE04FF4EA
:104578008053C4F202031B6B03F44033B3F5003FCE
:1045880004D17B684FF40042DA620FE04FF48053A5
:10459800C4F202031B6B03F44033B3F5403F05D16B
:1045A8007A684FF49053C0F27A03D3624FF4805381
:1045B800C4F202031B6B03F44023002B04D17B6875
:1045C8009A687B681A632DE04FF48053C4F20203A3
:1045D8001B6B03F44023B3F5802F04D17B681A6862
:1045E8007B681A631EE04FF48053C4F202031B6B0E
:1045F80003F44023B3F5002F04D17B684FF4004245
:104608001A630FE04FF48053C4F202031B6B03F4E8
:104618004023B3F5402F05D17A684FF49053C0F288
:104628007A0313634FF48053C4F202031B6B03F441
:104638004013002B04D17B689A687B685A632DE08D
:104648004FF48053C4F202031B6B03F44013B3F519
:10465800801F04D17B681A687B685A631EE04FF498
:104668008053C4F202031B6B03F44013B3F5001F1D
:1046780004D17B684FF400425A630FE04FF4805333
:10468800C4F202031B6B03F44013B3F5401F05D1BA
:104698007A684FF49053C0F27A0353634FF480530F
:1046A800C4F202031B6B03F44003002B04D17B68A4
:1046B8009A687B689A632DE04FF48053C4F2020332
:1046C8001B6B03F44003B3F5800F04D17B681A68B1
:1046D8007B689A631EE04FF48053C4F202031B6B9D
:1046E80003F44003B3F5000F04D17B684FF4004294
:1046F8009A630FE04FF48053C4F202031B6B03F478
:104708004003B3F5400F05D17A684FF49053C0F2D7
:104718007A03936307F12C07BD4680BC704700BF3E
:1047280080B483B000AF78604FF0D803C4F242235E
:104738007A681A6007F10C07BD4680BC704700BF55
:1047480080B483B000AF78600B46FB70FB78002B19
:104758000CD04FF48053C4F202034FF48052C4F2D9
:10476800020251697A680A435A610DE04FF4805396
:10477800C4F202034FF48052C4F2020251697A680B
:104788006FEA02020A405A6107F10C07BD4680BC75
:10479800704700BF80B483B000AF78600B46FB70F1
:1047A800FB78002B0CD04FF48053C4F202034FF473
:1047B8008052C4F2020291697A680A439A610DE054
:1047C8004FF48053C4F202034FF48052C4F2020241
:1047D80091697A686FEA02020A409A6107F10C0748
:1047E800BD4680BC704700BF80B483B000AF78601E
:1047F8000B46FB70FB78002B0CD04FF48053C4F2AF
:1048080002034FF48052C4F20202D1697A680A4363
:10481800DA610DE04FF48053C4F202034FF4805282
:10482800C4F20202D1697A686FEA02020A40DA61C8
:1048380007F10C07BD4680BC704700BF80B487B045
:1048480000AF0346FB714FF00003FB604FF000031D
:104858007B614FF00003FB74FB794FEA5313DBB223
:10486800FB60FB68002B06D14FF48053C4F20203AF
:104878001B687B6119E0FB68012B06D14FF480535C
:10488800C4F202031B6A7B610FE0FB68042B06D1AC
:104898004FF48053C4F202035B687B6105E04FF478
:1048A8008053C4F202035B6A7B61FB7903F01F0348
:1048B800FB60FB687A6922FA03F303F00103002B1B
:1048C80003D04FF00103FB7402E04FF00003FB74C8
:1048D800FB7C184607F11C07BD4680BC704700BF2B
:1048E80080B483B000AF78604FF46D43CEF200031C
:1048F8007A6842F0BF6242F40032DA6007F10C07CE
:10490800BD4680BC704700BF80B487B000AF7860F8
:104918004FF000037B614FF000033B614FF00F0342
:10492800FB607B68DB78002B47D04FF46D43CEF2F9
:104938000003DB686FEA030303F4E0634FEA132321
:104948007B617B69C3F104033B617B69FA6822FAE6
:1049580003F3FB607B685B781A463B6902FA03F352
:104968007B617B689B781A46FB6813407A6913431E
:104978007B617B694FEA03137B614FF46143CEF29D
:1049880000037A68127811467A69D2B25B1883F804
:1049980000234FF46143CEF200037A6812784FEA9D
:1049A8005212D2B27968097801F01F014FF0010064
:1049B80000FA01F143F8221014E04FF46143CEF2FB
:1049C80000037A6812784FEA5212D2B279680978ED
:1049D80001F01F014FF0010000FA01F102F120027D
:1049E80043F8221007F11C07BD4680BC704700BF82
:1049F80080B485B000AF786039604FF00003FB6089
:104A08007B681B6823F001027B681A607B681B685F
:104A1800FB60FA684EF2FF03C0F2CF031340FB605D
:104A28003B685A683B689B684FEA03231343FA685C
:104A38001343FB607B68FA681A603B681B6823F0C5
:104A480070627B681A617B681B6843F001027B68AF
:104A58001A604FF00003FB607B68FA689A607B6815
:104A6800FA68DA603B689A693B681B691343FB6024
:104A78007B68FA689A607B689B6843F400427B68AD
:104A88009A603B68DB68FB607B681A68FB681A43BE
:104A98007B681A607B685B68FB60FB6823F078437F
:104AA80023F40043FB603B685B69FA681343FB60CF
:104AB8007B68FA685A6007F11407BD4680BC7047E6
:104AC80080B483B000AF78600B46FB70FB78002B96
:104AD80006D07B681B6843F001027B681A6005E01A
:104AE8007B681B6823F001027B681A6007F10C07DA
:104AF800BD4680BC704700BF80B487B000AFF86087
:104B08007B600B467B8113467B724FF000037B6111
:104B1800FB685B687B617A694FF41843CFF6004302
:104B280013407B617B894FEA83534FEA93537A7A28
:104B38004FEA024202F47F021A437B681A433B6A37
:104B480013437A6913437B61FB687A695A6007F1FA
:104B58001C07BD4680BC704780B483B000AF786046
:104B68000B46FB70FA787B689A6207F10C07BD4622
:104B780080BC704780B483B000AF78607B685B6AA4
:104B8800DBB2184607F10C07BD4680BC704700BF72
:104B980080B485B000AF786039604FF00003BB6027
:104BA8004FF00003FB737B689B69BB60BA683B6886
:104BB8001340BB60BB68002B03D04FF00103FB73AD
:104BC80002E04FF00003FB73FB7B184607F1140764
:104BD800BD4680BC704700BF80B483B000AF78602A
:104BE80039607B683A68DA6107F10C07BD4680BC1A
:104BF800704700BF80B487B000AF786039604FF06D
:104C080000037B614FF000033B614FF00003FB6042
:104C18004FF000037B618CE07B694FF0010202FAE0
:104C280003F33B613B681A683B691340FB60FA6811
:104C38003B699A4279D13B681B79012B03D03B68C9
:104C48001B79022B3AD17B689A687B694FEA430348
:104C58004FF0030101FA03F36FEA03031A407B687C
:104C68009A607B689A683B685B7919467B694FEA6A
:104C7800430301FA03F31A437B689A607B689B88B5
:104C88009AB27B699BB24FF0010101FA03F39BB220
:104C98006FEA03039BB213409AB27B689A807B68E1
:104CA8009B889AB23B689B7919467B699BB201FA4B
:104CB80003F39BB213439AB27B689A807B681A68A5
:104CC8007B694FEA43034FF0030101FA03F36FEAEC
:104CD80003031A407B681A607B681A683B681B7973
:104CE80019467B694FEA430301FA03F31A437B68C9
:104CF8001A607B68DA687B699BB24FEA43034FF01E
:104D0800030101FA03F36FEA03031A407B68DA60D0
:104D18007B68DA683B68DB7919467B694FEA4303AD
:104D280001FA03F31A437B68DA607B6903F1010334
:104D38007B617B690F2B7FF66FAF07F11C07BD46C0
:104D480080BC704780B485B000AF78600B467B802C
:104D58004FF00003FB737B681B8A9AB27B88134071
:104D68009BB2002B03D04FF00103FB7302E04FF01E
:104D78000003FB73FB7B184607F11407BD4680BC94
:104D8800704700BF80B483B000AF78600B467B806B
:104D98007A887B689A6107F10C07BD4680BC70472A
:104DA80080B483B000AF78600B467B807B687A88DC
:104DB8001A8507F10C07BD4680BC704780B485B0E2
:104DC80000AF786013460A467A807B704FF0000384
:104DD800FB604FF00003BB607A787B8803F0070321
:104DE8004FEA830302FA03F3FB607B884FEAD3039D
:104DF8009BB21A467B884FEAD3039BB219467B685D
:104E080001F1080153F821107B8803F007034FEAEA
:104E180083034FF00F0000FA03F36FEA030319400E
:104E28007B6802F1080243F822107B884FEAD3031B
:104E38009BB21A467B6802F1080253F82220FB68ED
:104E48001343BB607B884FEAD3039BB21A467B6847
:104E580002F10802B96843F8221007F11407BD46A9
:104E680080BC704780B485B000AF78604FF0000315
:104E7800FB604FF48063C4F20103FB607B689B799D
:104E8800002B00F011817B681B684FEA531303F174
:104E9800007303F502634FEA43131A467B681B68E5
:104EA8004FEA531303F1007303F502634FEA431308
:104EB80019687B681B6803F01F034FF0010000FAB4
:104EC80003F36FEA03030B4013607B681B684FEA28
:104ED80053134FEA431240F20443C4F20103D318B8
:104EE8001A467B681B684FEA53134FEA431140F296
:104EF8000443C4F20103CB1819687B681B6803F0EC
:104F08001F034FF0010000FA03F36FEA03030B409D
:104F180013607B681B791A467B681B684FEA53133A
:104F28004FEA4313D318FA68D318FB60FB68FA6892
:104F380011687A68126802F01F024FF0010000FA47
:104F480002F20A431A604FF48063C4F20103FB6063
:104F58007B681B684FEA53134FEA43124FF481638F
:104F6800C4F20103D3181A467B681B684FEA53132F
:104F78004FEA43114FF48163C4F20103CB18196857
:104F88007B681B6803F01F034FF0010000FA03F36E
:104F98006FEA03030B4013607B681B684FEA5313E7
:104FA8004FEA431240F20C43C4F20103D3181A46E5
:104FB8007B681B684FEA53134FEA431140F20C43D6
:104FC800C4F20103CB1819687B681B6803F01F0340
:104FD8004FF0010000FA03F36FEA03030B4013607C
:104FE8007B685B79102B44D17B681B684FEA5313AD
:104FF8004FEA43124FF48163C4F20103D3181A46EF
:105008007B681B684FEA53134FEA43114FF48163DF
:10501800C4F20103CB1819687B681B6803F01F03EF
:105028004FF0010000FA03F30B4313607B681B6821
:105038004FEA53134FEA431240F20C43C4F2010300
:10504800D3181A467B681B684FEA53134FEA43117B
:1050580040F20C43C4F20103CB1819687B681B6843
:1050680003F01F034FF0010000FA03F30B43136032
:1050780036E07B685B791A467B681B684FEA5313F6
:105088004FEA4313D318FA68D318FB60FB68FA6831
:1050980011687A68126802F01F024FF0010000FAE6
:1050A80002F20A431A601BE07B681B791A467B6888
:1050B8001B684FEA53134FEA4313D318FA68D318FF
:1050C800FB60FB68FA6811687A68126802F01F02D0
:1050D8004FF0010000FA02F26FEA02020A401A6079
:1050E80007F11407BD4680BC704700BF80B483B089
:1050F80000AF78607B684FEA53134FEA431240F2DF
:105108001443C4F20103D3187A6802F01F024FF067
:10511800010101FA02F21A6007F10C07BD4680BCD2
:10512800704700BF38B50E4D0E4BE81A85100024A5
:10513800AC4205D00B4951F8242090470134F7E7D9
:1051480000F0A2F80849094A541AA5100024AC42F4
:1051580005D0054B53F8240080470134F7E738BDE4
:10516800A8520008A8520008A8520008AC5200082B
:1051780012010002000000408304105700020102DF
:105188000301000009022200010100E032090400C5
:10519800000103010200092100010001224A000761
:1051A800058103040020000005010902A10109018D
:1051B800A1000509190129031500250195037501A9
:1051C8008102950175058101050109300931093808
:1051D8001581257F750895038106C0093C05FF09DF
:1051E800011500250175019502B12275069501B1D9
:1051F80001C00000040309042603530054004D00B5
:105208006900630072006F0065006C006500630050
:10521800740072006F006E00690063007300000084
:105228001E03530054004D003300320020004A0092
:105238006F00790073007400690063006B00000060
:105248000002000100040080000800400010002057
:1052580000002000000020000000200000002000C6
:1052680000002000000020000000200000002000B6
:105278000100000000000200000000000000000023
:105288000000000006000000F8B500BFF8BC08BC2C
:105298009E467047F8B500BFF8BC08BC9E467047EC
:0452A800AD0100084C
:0452AC00890100086C
:1052B000010000000201000079040008A9040008B0
:1052C000DD050008E9050008F5050008D10600081D
:1052D000F90700080D070008350700085D070008FA
:1052E000000000004000000009400008950500088B
:1052F000094000080940000809400008094000086A
:105300000940000809400008C50500087851000858
:10531000120000008C51000822000000B05100086B
:105320004A0000009E51000809000000FC510008DE
:105330000400000000520008260000002852000867
:105340001E000000D40000201A000000490A0008D6
:105350000940000809400008094000080940000809
:1053600009400008094000080940000809400008F9
:1053700009400008094000080940000809400008E9
:10538000094000081A03530054004D003300320056
:1053900031003000000000000000000000000000AC
:1053A0000100000000A000000010004800100048AC
:1053B000001000480010004800100048001000488D
:1053C00000100048001000480000004800000000E5
:1053D000010203040102030406070809000001009A
:1053E00002000400060008000A000C001000200063
:0853F0004000800000010000F4
:0400000508000D6979
:00000001FF
